:020000040800F2
:1000000000500020313A0008391700083B1700085B
:100010003D1700083F1700084117000800000000C6
:10002000000000000000000000000000431700086E
:10003000451700080000000047170008491700088E
:10004000793A0008793A0008793A0008793A0008C4
:10005000793A0008793A0008793A0008793A0008B4
:10006000793A0008793A0008793A0008793A0008A4
:10007000793A0008793A000851170008793A0008DF
:10008000793A0008793A0008793A0008793A000884
:10009000793A0008793A0008793A0008793A000874
:1000A000793A0008793A0008793A0008793A000864
:1000B00061170008793A000871170008793A0008BA
:1000C000793A0008793A0008793A0008793A000844
:1000D000793A000881170008793A0008793A00084F
:1000E000793A0008793A0008793A000800000000DF
:1000F0000000000000000000000000000000000000
:0C01000000000000000000005FF808F1A3
:1001100010B5054C237833B9044B13B10448AFF341
:1001200000800123237010BDE001002000000000CA
:100130003883000808B5034B1BB103490348AFF3EC
:10014000008008BD00000000E401002038830008A2
:10015000034613F8012B002AFBD1181A0138704707
:1001600081F0004102E000BF83F0004330B54FEA68
:1001700041044FEA430594EA050F08BF90EA020FD5
:100180001FBF54EA000C55EA020C7FEA645C7FEA68
:10019000655C00F0E2804FEA5454D4EB5555B8BF8B
:1001A0006D420CDD2C4480EA020281EA030382EAFC
:1001B000000083EA010180EA020281EA0303362D8E
:1001C00088BF30BD11F0004F4FEA01314FF4801C61
:1001D0004CEA113102D0404261EB410113F0004F73
:1001E0004FEA03334CEA133302D0524263EB43032A
:1001F00094EA050F00F0A780A4F10104D5F1200EC8
:100200000DDB02FA0EFC22FA05F2801841F1000122
:1002100003FA0EF2801843FA05F359410EE0A5F1F6
:1002200020050EF1200E012A03FA0EFC28BF4CF027
:10023000020C43FA05F3C01851EBE37101F00045DD
:1002400007D54FF0000EDCF1000C7EEB00006EEBEA
:100250000101B1F5801F1BD3B1F5001F0CD3490874
:100260005FEA30004FEA3C0C04F101044FEA4452CB
:1002700012F5800F80F09A80BCF1004F08BF5FEA52
:10028000500C50F1000041EB045141EA050130BD32
:100290005FEA4C0C404141EB0101013C28BFB1F544
:1002A000801FE9D291F0000F04BF01460020B1FA8F
:1002B00081F308BF2033A3F10B03B3F120020CDA62
:1002C0000C3208DD02F1140CC2F10C0201FA0CF040
:1002D00021FA02F10CE002F11402D8BFC2F1200CA5
:1002E00001FA02F120FA0CFCDCBF41EA0C0190405B
:1002F000E41AA2BF01EB0451294330BD6FEA0404A4
:100300001F3C1CDA0C340EDC04F11404C4F120028E
:1003100020FA04F001FA02F340EA030021FA04F3A0
:1003200045EA030130BDC4F10C04C4F1200220FAF7
:1003300002F001FA04F340EA0300294630BD21FA35
:1003400004F0294630BD94F0000F83F4801306BFFB
:1003500081F480110134013D4EE77FEA645C18BFEF
:100360007FEA655C29D094EA050F08BF90EA020F86
:1003700005D054EA000C04BF1946104630BD91EA7E
:10038000030F1EBF0021002030BD5FEA545C05D181
:100390004000494128BF41F0004130BD14F58004C0
:1003A0003CBF01F5801130BD01F0004545F0FE4134
:1003B00041F470014FF0000030BD7FEA645C1ABF69
:1003C000194610467FEA655C1CBF0B46024650EAA0
:1003D000013406BF52EA033591EA030F41F40021CC
:1003E00030BD00BF90F0000F04BF0021704730B552
:1003F0004FF4806404F132044FF000054FF0000127
:1004000050E700BF90F0000F04BF0021704730B5E7
:100410004FF4806404F1320410F0004548BF4042BC
:100420004FF000013EE700BF42004FEAE2014FEA11
:1004300031014FEA02701FBF12F07F4393F07F4FEC
:1004400081F06051704732F07F4208BF704793F0EF
:100450007F4F04BF41F40021704730B54FF4607402
:1004600001F0004521F000411CE700BF50EA010205
:1004700008BF704730B54FF000050AE050EA0102AE
:1004800008BF704730B511F0004502D5404261EB1E
:1004900041014FF4806404F132045FEA915C3FF45F
:1004A000D8AE4FF003025FEADC0C18BF03325FEAFC
:1004B000DC0C18BF033202EBDC02C2F1200300FAAD
:1004C00003FC20FA02F001FA03FE40EA0E0021FAD2
:1004D00002F11444BDE600BF70B54FF0FF0C4CF4C0
:1004E000E06C1CEA11541DBF1CEA135594EA0C0F72
:1004F00095EA0C0F00F0DEF82C4481EA030621EAAD
:100500004C5123EA4C5350EA013518BF52EA0335E7
:1005100041F4801143F4801338D0A0FB02CE4FF099
:100520000005E1FB02E506F00042E0FB03E54FF0C9
:100530000006E1FB03569CF0000F18BF4EF0010EC1
:10054000A4F1FF04B6F5007F64F5407404D25FEABD
:100550004E0E6D4146EB060642EAC62141EA555170
:100560004FEAC52040EA5E504FEACE2EB4F1FD0CB2
:1005700088BFBCF5E06F1ED8BEF1004F08BF5FEA30
:10058000500E50F1000041EB045170BD06F00046E2
:1005900046EA010140EA020081EA0301B4EB5C048F
:1005A000C2BFD4EB0C0541EA045170BD41F4801187
:1005B0004FF0000E013C00F3AB8014F1360FDEBFAC
:1005C000002001F0004170BDC4F10004203C35DA88
:1005D0000C341BDC04F11404C4F1200500FA05F30B
:1005E00020FA04F001FA05F240EA020001F00042AC
:1005F00021F0004110EBD37021FA04F642EB060122
:100600005EEA430E08BF20EAD37070BDC4F10C044B
:10061000C4F1200500FA04F320FA05F001FA04F20F
:1006200040EA020001F0004110EBD37041F10001FB
:100630005EEA430E08BF20EAD37070BDC4F1200506
:1006400000FA05F24EEA020E20FA04F301FA05F26E
:1006500043EA020321FA04F001F0004121FA04F216
:1006600020EA020000EBD3705EEA430E08BF20EAE6
:10067000D37070BD94F0000F0FD101F00046400020
:1006800041EB010111F4801F08BF013CF7D041EAA2
:10069000060195F0000F18BF704703F000465200A6
:1006A00043EB030313F4801F08BF013DF7D043EA77
:1006B0000603704794EA0C0F0CEA135518BF95EA2D
:1006C0000C0F0CD050EA410618BF52EA4306D1D1B4
:1006D00081EA030101F000414FF0000070BD50EAD3
:1006E000410606BF1046194652EA430619D094EA5D
:1006F0000C0F02D150EA013613D195EA0C0F05D147
:1007000052EA03361CBF104619460AD181EA03019A
:1007100001F0004141F0FE4141F470014FF0000052
:1007200070BD41F0FE4141F4780170BD70B54FF0ED
:10073000FF0C4CF4E06C1CEA11541DBF1CEA13556D
:1007400094EA0C0F95EA0C0F00F0A7F8A4EB05044F
:1007500081EA030E52EA03354FEA013100F0888046
:100760004FEA03334FF0805545EA131343EA12630F
:100770004FEA022245EA111545EA10654FEA0026C4
:100780000EF000419D4208BF964244F1FD0404F57D
:10079000407402D25B084FEA3202B61A65EB0305D9
:1007A0005B084FEA32024FF480104FF4002CB6EB96
:1007B000020E75EB030E22BFB61A754640EA0C0016
:1007C0005B084FEA3202B6EB020E75EB030E22BF56
:1007D000B61A754640EA5C005B084FEA3202B6EB97
:1007E000020E75EB030E22BFB61A754640EA9C0056
:1007F0005B084FEA3202B6EB020E75EB030E22BF26
:10080000B61A754640EADC0055EA060E18D04FEAE3
:10081000051545EA16754FEA06164FEAC30343EA83
:1008200052734FEAC2025FEA1C1CC0D111F4801F50
:100830000BD141EA00014FF000004FF0004CB6E749
:1008400011F4801F04BF01430020B4F1FD0C88BFE8
:10085000BCF5E06F3FF6AFAEB5EB030C04BFB6EBF3
:10086000020C5FEA500C50F1000041EB045170BDE6
:100870000EF0004E4EEA113114EB5C04C2BFD4EB13
:100880000C0541EA045170BD41F480114FF0000E97
:10089000013C90E645EA060E8DE60CEA135594EA13
:1008A0000C0F08BF95EA0C0F3FF43BAF94EA0C0F16
:1008B0000AD150EA01347FF434AF95EA0C0F7FF48B
:1008C00025AF104619462CE795EA0C0F06D152EADF
:1008D00003353FF4FDAE1046194622E750EA4106C3
:1008E00018BF52EA43067FF4C5AE50EA41047FF4D4
:1008F0000DAF52EA43057FF4EBAE12E74FF0FF3C39
:1009000006E000BF4FF0010C02E000BF4FF0010C09
:100910004DF804CD4FEA410C7FEA6C5C4FEA430C82
:1009200018BF7FEA6C5C1BD001B050EA410C0CBFD1
:1009300052EA430C91EA030F02BF90EA020F002033
:10094000704710F1000F91EA030F58BF994208BF9A
:1009500090422CBFD8176FEAE37040F00100704757
:100960004FEA410C7FEA6C5C02D150EA013C07D1AE
:100970004FEA430C7FEA6C5CD6D152EA033CD3D0F9
:100980005DF8040B704700BF8446104662468C46F3
:100990001946634600E000BF01B5FFF7B7FF002826
:1009A00048BF10F1000F01BD4DF808EDFFF7F4FF4F
:1009B0000CBF012000205DF808FB00BF4DF808EDDA
:1009C000FFF7EAFF34BF012000205DF808FB00BFFD
:1009D0004DF808EDFFF7E0FF94BF012000205DF81F
:1009E00008FB00BF4DF808EDFFF7CEFF94BF0120D4
:1009F00000205DF808FB00BF4DF808EDFFF7C4FFCD
:100A000034BF012000205DF808FB00BF4FEA410C15
:100A10007FEA6C5C02D150EA013C0AD14FEA430CF8
:100A20007FEA6C5C02D152EA033C02D14FF0000035
:100A300070474FF0010070474FEA410212F5001273
:100A400015D211D56FF47873B3EB625212D94FEA15
:100A5000C12343F0004343EA505311F0004F23FAFF
:100A600002F018BF404270474FF00000704750EA54
:100A7000013005D111F0004008BF6FF00040704711
:100A80004FF00000704700BF4A0011D212F500126B
:100A900011D20DD56FF47873B3EB62520ED44FEAD6
:100AA000C12343F0004343EA505323FA02F0704756
:100AB0004FF00000704750EA013002D14FF0FF3094
:100AC00070474FF0000070474FEA4102B2F1E04337
:100AD00024BFB3F5001CDCF1FE5C0DD901F0004C25
:100AE0004FEAC0024CEA5070B2F1004F40EB830075
:100AF00008BF20F00100704711F0804F21D113F1A1
:100B00003872BCBF01F00040704741F480114FEAD9
:100B10005252C2F11802C2F1200C10FA0CF320FA62
:100B200002F018BF40F001004FEAC1234FEAD3237F
:100B300003FA0CFC40EA0C0023FA02F34FEA4303E9
:100B4000CCE77FEA625307D150EA01331EBF4FF072
:100B5000FE4040F44000704701F0004040F0FE408D
:100B600040F40000704700BF38B505460C4600222F
:100B7000002328462146FFF721FF28B928462146B1
:100B8000BDE8384000F00AB8284604F1004100F002
:100B900005F8404261EB410138BD00BFD0B50022ED
:100BA0000B4B06460F46FFF797FCFFF76DFF044619
:100BB000FFF718FC0022074BFFF78EFC02460B469E
:100BC00030463946FFF7D0FAFFF75EFF2146D0BD29
:100BD0000000F03D0000F04110B586B001238DF813
:100BE0000E30FF2200920DF10F020DF10E011D4893
:100BF00001F005FF1C4B1B88ADF8143000248DF864
:100C00001640ADF810308DF8124018480268546252
:100C10000523D362C36002F049F802E0134B1B685E
:100C20005C6A052CFAD1114802F06EF84FF0FF33E0
:100C30000093032305AA04A90A4801F0E0FE9DF8E9
:100C400014209DF815301B0243EA02439DF816005C
:100C5000184313F4000F03D06FEA40206FEA5020CE
:100C600006B010BD4002002050830008E4020020BE
:100C700030B585B0B24C00221021204601F09FFA19
:100C80000A2000F06BFF01221021204601F097FAA4
:100C90000A2000F063FF642000F060FF0821A848EC
:100CA00001F086FA0028F9D150238DF80E30FF2389
:100CB000009301230DF10F020DF10E01A14801F087
:100CC0009EFEA1480268002454620523D362C360DB
:100CD00001F0ECFF02E09C4B1B685C6A052CFAD12A
:100CE000994D284602F010F800248DF80E40FF239D
:100CF000009301230DF10F020DF10E01914801F057
:100D00007EFE2A6854620523D362EB60284601F018
:100D1000CDFF02E08C4B1B685C6A052CFAD18A4D32
:100D2000284601F0F1FF06238DF80E30FF230093D3
:100D300001230DF10F020DF10E01824801F05FFE5B
:100D40002A68002454620523D362EB60284601F030
:100D5000ADFF02E07C4B1B685C6A052CFAD17A4837
:100D600001F0D2FF642000F0F9FE0821744801F080
:100D70001FFA0028F9D151238DF80E30FF2300937C
:100D800001230DF10F020DF10E016E4801F037FE47
:100D90006D480268002454620523D362C36001F0E9
:100DA00085FF02E0684B1B685C6A052CFAD1664D32
:100DB000284601F0A9FF00248DF80E40FF23009380
:100DC00001230DF10F020DF10E015E4801F017FE37
:100DD0002A6854620523D362EB60284601F066FF5F
:100DE00002E0594B1B685C6A052CFAD1564D284627
:100DF00001F08AFF08238DF80E30FF2300930123B2
:100E00000DF10F020DF10E014E4801F0F8FD2A68B8
:100E1000002454620523D362EB60284601F046FFAC
:100E200002E0494B1B685C6A052CFAD1464801F088
:100E30006BFF642000F092FE0821414801F0B8F9F0
:100E40000028F9D152238DF80E30FF23009301239F
:100E50000DF10F020DF10E013A4801F0D0FD3A48B4
:100E60000268002454620523D362C36001F01EFFB0
:100E700002E0354B1B685C6A052CFAD1324D2846DE
:100E800001F042FF00248DF80E40FF230093012360
:100E90000DF10F020DF10E012A4801F0B0FD2A6894
:100EA00054620523D362EB60284601F0FFFE02E0A6
:100EB000254B1B685C6A052CFAD1234D284601F0AE
:100EC00023FF00248DF80E40FF23009301230DF132
:100ED0000F020DF10E011B4801F091FD2A685462CA
:100EE0000523D362EB60284601F0E0FE02E0164BDA
:100EF0001B685C6A052CFAD1134801F005FF6420D9
:100F000000F02CFE08210E4801F052F90028F9D11A
:100F100053238DF80E30FF23009301230DF10F02B0
:100F20000DF10E01074801F06AFD07480268002430
:100F300054620523D362C36001F0B8FE09E000BF2C
:100F40000008014040020020E4020020664B1B68BC
:100F50005C6A052CFAD1644D284601F0D5FE0024C8
:100F60008DF80E40FF23009301230DF10F020DF1C8
:100F70000E015E4801F043FD2A6854620523D362E6
:100F8000EB60284601F092FE02E0574B1B685C6A5A
:100F9000052CFAD1544D284601F0B6FEA1238DF858
:100FA0000E30FF23009301230DF10F020DF10E010E
:100FB0004E4801F024FD2A68002454620523D362C0
:100FC000EB60284601F072FE02E0474B1B685C6A4A
:100FD000052CFAD1444801F097FE642000F0BEFDD4
:100FE0000821434801F0E4F80028F9D154238DF892
:100FF0000E30FF23009301230DF10F020DF10E01BE
:101000003A4801F0FCFC3848026800245462052389
:10101000D362C36001F04AFE02E0334B1B685C6A96
:10102000052CFAD1304D284601F06EFE00248DF8D3
:101030000E40FF23009301230DF10F020DF10E016D
:101040002A4801F0DCFC2A6854620523D362EB6075
:10105000284601F02BFE02E0234B1B685C6A052C3E
:10106000FAD1214D284601F04FFE00248DF80E40A4
:10107000FF23009301230DF10F020DF10E011B4818
:1010800001F0BDFC2A6854620523D362EB60284658
:1010900001F00CFE02E0144B1B685C6A052CFAD1CF
:1010A000114801F031FE642000F058FDFC238DF85A
:1010B0000E300E4DFF24009401230DF10F020DF1AF
:1010C0000E01284601F09BFC8DF80E400094012390
:1010D0000DF10F020DF10E01284601F090FC642085
:1010E00000F03CFD05B030BDE402002040020020CD
:1010F000000801402DE9F04184B0002573E0534B16
:101100001B685C6A052CFAD1DFF84081404601F08B
:10111000FBFD00248DF80E40FF23009301230DF109
:101120000F020DF10E014A4801F069FCD8F80020C9
:1011300054620523D362C8F80C30404601F0B6FD76
:1011400002E0424B1B685C6A052CFAD1DFF8FC8098
:10115000404601F0D9FD8DF80E70FF230093012366
:101160000DF10F020DF10E01394801F048FCD8F8DD
:101170000020002454620523D362C8F80C30404696
:1011800001F094FD02E0314B1B685C6A052CFAD13A
:101190002E4801F0B9FDFC238DF80E302C4FFF24B2
:1011A000009401230DF10F020DF10E01384601F0FC
:1011B00026FC8DF80E40009401230DF10F020DF175
:1011C0000E01384601F01BFC03356B4205F00305A8
:1011D00003F0030358BF5D42FFF7FEFC1D4B43F8CD
:1011E0002500751C6DB2032D2CDCEEB27300DAB253
:1011F0005FB2531C5BB23F017FB21F430821164808
:1012000000F0D6FF0028F9D1FFB20821124800F003
:10121000CFFF0028F9D151238DF80E30FF23009322
:1012200001230DF10F020DF10E01094801F0E7FB5A
:1012300006480268002454620523D362C36001F0AB
:1012400035FD5FE704B0BDE8F08100BFE402002097
:1012500040020020FC01002000080140030E0B703A
:1012600003144B7003128B708870704738B5264C8E
:10127000AA252570BB2565700125A5704FF0000CCF
:1012800008E00CF1030410F80CE01F4D05F804E031
:101290000CF1010CBCF1030FF3DD1B480224C471F7
:1012A000002007E000F1080411F800C0164D05F811
:1012B00004C001300328F5DD134903200873002121
:1012C00007E001F10D0012F801C00F4C04F800C056
:1012D00001310329F5DD0C4A04215174002207E095
:1012E00002F1120113F802C0074800F801C00132F0
:1012F000032AF5DD0449BB238B75AA23CB7518227D
:10130000024802F02BF938BD10020020B80300207B
:1013100008B50368124A934203D0B3F1804F16D048
:1013200008BD4FF400510F4800F04FFF0E4B1B68F3
:10133000012B06D000224FF480510A4800F03FFFF5
:10134000EEE74FF48051074800F03FFFE8E7074B16
:101350001B68002BE4D1054B01221A60E0E700BFB7
:1013600000080040000C0140280200200C02002070
:10137000022801D80120704708B502F07FFB09233D
:101380000360002008BD000010B5013801280AD80C
:1013900014464FF0FF3392B20748006802F00FF88E
:1013A00040B9204610BD02F069FB092303604FF0ED
:1013B000FF30F7E70520F5E72C020020022801D8CE
:1013C0000020704708B502F059FB092303604FF075
:1013D000FF3008BD08B502F051FB092303604FF050
:1013E000FF3008BD08B548B94FF0FF330122084867
:1013F000006802F04AF840B9012008BD02F03EFB47
:10140000092303604FF0FF30F7E70520F5E700BF41
:101410002C02002008B5022804D84FF400534B607A
:10142000002008BD02F02AFB09230360F8E7000052
:1014300000B583B00A4B5A6942F001025A615B69F8
:1014400003F001030193019B002211460E2000F0DE
:10145000ABFB0E2000F0E0FB03B05DF804FB00BF27
:10146000001002402DE9F04188B000240494059456
:1014700006940794264B9A6942F020029A619A6971
:1014800002F020020192019A9A6942F004029A61E4
:101490009A6902F004020292029A9A6942F00802E2
:1014A0009A619B6903F008030393039B194D22463D
:1014B0001021284600F083FE174E22464FF440517B
:1014C000304600F07CFE082304930594069404A99A
:1014D000284600F05BFD102304934FF00108CDF87F
:1014E00014800694022707970DEB0301284600F0AD
:1014F0004DFD4FF440530493CDF8148006940797A4
:1015000004A9304600F042FD08B0BDE8F08100BFFC
:101510000010024000080140000C014072B6FEE7D6
:1015200000B591B02822002106A802F0D1FA0023CC
:1015300001930293039304930593012206924FF4BF
:10154000803307934FF4003108910A9202220D92E2
:101550000E934FF4E0130F9306A800F055FE80B9E8
:101560000F23019302210291002303934FF4806221
:101570000492059301A801F07FF820B911B05DF83D
:1015800004FBFFF7CBFFFFF7C9FF000080B500F0B9
:10159000C1FAFFF7C5FFFFF765FFFFF749FF00F04E
:1015A0001BFA00F04BF800F097F900F05DF900F03D
:1015B00025F9194801F0BCFB184C01232360FFF703
:1015C00057FB00232360164801F0B2FB154B1B6844
:1015D000012BFBD1FFF78EFD134D144C29462068DB
:1015E000FFF73CFE124E31466068FFF737FE114FA1
:1015F0003946A068FFF732FEDFF83C804146E068DC
:10160000FFF72CFE43463A4631462846FFF72EFEAA
:10161000044B00221A60D9E72C0300202802002086
:101620009C0200200C02002030020020FC0100205F
:1016300034020020380200203C02002008B50E4889
:101640000E4B03604FF48273436000238360C360DA
:101650000361012242614FF4007282612822C2615B
:101660000362436283620A23C36201F06DF900B929
:1016700008BDFFF753FFFBE74002002000300140A8
:1016800010B586B000230293039304930593026878
:10169000164B9A4201D006B010BD03F560439A691B
:1016A00042F480529A619A6902F480520092009A40
:1016B0009A6942F004029A619B6903F00403019362
:1016C000019BA02302930223039303230593084C59
:1016D00002A9204600F05AFC402302930023039302
:1016E000049302A9204600F051FCD4E700300140E9
:1016F0000008014082B00E4B9A6942F001029A61E3
:101700009A6902F001020092009ADA6942F080526E
:10171000DA61DB6903F080530193019B054A53684A
:1017200023F0E06343F00073536002B0704700BFE2
:101730000010024000000140FEE7FEE7FEE7FEE782
:10174000FEE770477047704708B500F0F5F908BD2F
:1017500008B5024800F078FB08BD00BF7403002004
:1017600008B5024801F01CFB08BD00BF9C02002028
:1017700008B5024801F014FB08BD00BF2C0300208F
:1017800008B5024802F010F808BD00BFB8030020F9
:101790000120704708B502F071F9162303604FF07D
:1017A000FF3008BD08B54FF0FF31FFF7F3FFFEE74C
:1017B00010B503460C4A0D490D48006840B10C486D
:1017C00000680344521A934206D8094A136010BDB8
:1017D0000748084C0460F2E702F050F90C2303605C
:1017E0004FF0FF30F3E700BF00500020000400007E
:1017F00098020020180400207047000000B587B050
:1018000000230293039304930593009301931548D7
:101810004FF08042026047224260836041F287328B
:10182000C2600361836101F0ADFB90B94FF4805356
:10183000029302A90B4801F0DDFB68B90023009375
:1018400001936946074801F055FC40B907B05DF8BF
:1018500004FBFFF763FEE9E7FFF760FEEEE7FFF743
:101860005DFEF3E79C02002000B587B000230293E1
:10187000039304930593009301931548154A02605E
:1018800047224260836040F2E732C26003618361B5
:1018900001F078FB90B94FF48053029302A90C48F1
:1018A00001F0A8FB68B9002300930193694608483A
:1018B00001F020FC40B907B05DF804FBFFF72EFEF5
:1018C000E9E7FFF72BFEEEE7FFF728FEF3E700BF9F
:1018D000E40200200004004000B587B0002302931A
:1018E000039304930593009301931548154A0260EE
:1018F00043F67F624260836040F2E732C260036178
:10190000836101F03FFB90B94FF48053029302A929
:101910000B4801F06FFB68B90023009301936946FF
:10192000074801F0E7FB40B907B05DF804FBFFF79B
:10193000F5FDE9E7FFF7F2FDEEE7FFF7EFFDF3E76F
:101940002C0300200008004000B585B00368B3F107
:10195000804F08D01D4A934219D01D4A934221D08E
:1019600005B05DF804FB03F50433DA6942F00102C7
:10197000DA61DB6903F001030193019B0022114648
:101980001C2000F011F91C2000F046F9E8E7114B8B
:10199000DA6942F00202DA61DB6903F002030293C2
:1019A000029BDDE70B4BDA6942F00402DA61DB6986
:1019B00003F004030393039B002211461E2000F052
:1019C000F3F81E2000F028F9CAE700BF0004004029
:1019D000000800400010024008B50A480A4B0360A6
:1019E0004FF4E133436000238360C36003610C2242
:1019F00042618361C36101F0B2FC00B908BDFFF729
:101A00008DFDFBE7B80300200038014070B586B0BB
:101A1000002302930393049305930268264B9A4292
:101A200001D006B070BD044603F558439A6942F4EC
:101A300080429A619A6902F480420092009A9A69FF
:101A400042F004029A619B6903F004030193019B35
:101A50004FF4007302930223039303230593174E5D
:101A600002A9304600F092FA4FF4806302930025F9
:101A70000395049502A9304600F088FA1048114BEE
:101A800003601023436085608023C3600561456166
:101A90008561C56100F0F8F858B9094BA3635C6231
:101AA00000221146252000F07FF8252000F0B4F830
:101AB000B7E7FFF733FDF0E70038014000080140C9
:101AC000740300204400024010B504460E4B187801
:101AD0004FF47A73B3FBF0F30C4A1068B0FBF3F0E9
:101AE00000F0A8F868B90F2C01D901200AE0002203
:101AF00021464FF0FF3000F057F8054B1C600020E6
:101B000000E0012010BD00BF040000200000002004
:101B10000800002008B5074A136843F0100313605B
:101B2000032000F02FF80F20FFF7CEFFFFF7E2FDB4
:101B3000002008BD00200240034A1168034B1B78B7
:101B40000B441360704700BF000400200400002015
:101B5000014B1868704700BF0004002038B50446E8
:101B6000FFF7F6FF0546B4F1FF3F02D0044B1B78A8
:101B70001C44FFF7EDFF401BA042FAD338BD00BF65
:101B800004000020074AD36823F4E0631B041B0C05
:101B9000000200F4E060034343F0BF6343F400330A
:101BA000D360704700ED00E000B5194BDB68C3F36C
:101BB0000223C3F1070CBCF1040F28BF4FF0040C43
:101BC00003F1040EBEF1060F18D9033B4FF0FF3EA0
:101BD0000EFA0CFC21EA0C0199400EFA03F322EAFA
:101BE0000303194300280BDB0901C9B200F160406F
:101BF00000F5614080F800135DF804FB0023E5E781
:101C000000F00F000901C9B2024B1954F4E700BFFC
:101C100000ED00E014ED00E0002807DB00F01F02FB
:101C2000400901239340024A42F82030704700BF28
:101C300000E100E00138B0F1807F0BD24FF0E023EB
:101C40005861054AF02182F823100020986107228C
:101C50001A6170470120704700ED00E030B40124A4
:101C6000056CAC40C56B6C60046863604368102B06
:101C700005D0036899600368DA6030BC7047036878
:101C80009A600368D960F8E760B310B4024601684F
:101C9000154B0B441548A0FB03031B099B00136461
:101CA000134BD363022382F82130086820F47F505D
:101CB00020F03000536894682343D46823431469A8
:101CC00023435469234394692343D469234303433F
:101CD0000B6000209063012382F8213082F82000FD
:101CE00010BC704701207047F8FFFDBFCDCCCCCCB5
:101CF0000000024038B5044690F82000012832D098
:101D0000012084F8200094F82100C0B2012804D0FA
:101D1000002384F82030022038BD022084F82100FE
:101D20000020A0632568286820F001002860204674
:101D3000FFF794FFE36A5BB12268136843F00E0378
:101D400013602268136843F0010313600020E3E787
:101D50002268136823F0040313602268136843F0B9
:101D60000A031360EDE70220D6E790F82130DBB2DA
:101D7000022B06D004238363002380F82030012047
:101D800070470268136823F00E031360026813683B
:101D900023F001031360036CC16B012202FA03F309
:101DA0004B6080F82120002380F8203018467047CF
:101DB00008B590F82130DBB2022B03D004238363F3
:101DC000012008BD0268136823F00E031360026847
:101DD000136823F0010313600368194A934214D077
:101DE000143293421FD0143293421ED014329342C5
:101DF0001ED0143293421ED01432934202D04FF0C0
:101E0000807203E04FF4801200E001220D4B5A6013
:101E1000012380F82130002380F82030436B6BB120
:101E200098470020CDE71022F0E74FF48072EDE7ED
:101E30004FF48052EAE74FF48032E7E70020C0E732
:101E4000080002400000024038B5C36B1A680468FD
:101E50002568016C04238B40134235D015F0040F24
:101E600032D0236813F0200F03D1236823F004033A
:101E700023600368434A934214D01432934218D02B
:101E80001432934217D01432934217D01432934233
:101E900017D01432934202D04FF0806203E04FF427
:101EA000800200E00422384B5A60C36A03B19847AD
:101EB00038BD4022F7E74FF48062F4E74FF48042E8
:101EC000F1E74FF48022EEE702238B4013423CD02F
:101ED00015F0020F39D0236813F0200F06D12368C4
:101EE00023F00A032360012380F821300368254A88
:101EF000934214D0143293421CD0143293421BD01C
:101F0000143293421BD0143293421BD014329342AA
:101F100002D04FF0007203E04FF4001200E0022202
:101F2000194B5A60002380F82030836A002BBFD001
:101F30009847BDE72022F3E74FF40072F0E74FF433
:101F40000052EDE74FF40032EAE7082303FA01F10B
:101F50001142ADD015F0080FAAD0236823F00E036C
:101F60002360026CC16B012303FA02F24A608363AF
:101F700080F82130002380F82030036B002B97D0AD
:101F8000984795E7080002400000024070B582B013
:101F90000024A446A6E0804DAA4210D007D97F4D68
:101FA000AA420CD005F58035AA4208D013E0A5F569
:101FB0008015AA4203D005F57025AA4207D18A6888
:101FC000002A58D0012A51D04361082403E0A5F526
:101FD0008015AA42F3D0BEF1FF0F4ED80646BEF1DF
:101FE000FF0F4CD84FEA8C0233680F25954023EA47
:101FF000050304FA02F2134333604B6813F0805F69
:102000006ED0674B9A6942F001029A619B6903F0B6
:1020100001030193019B4FEA9C02951C614B53F80D
:1020200025600CF003039D000F23AB4026EA030656
:102030005D4B984229D003F58063984200F08E8072
:1020400003F58063984200F08B8003F5806398422B
:1020500019D004231AE0CC68BDE7CC680434BAE791
:10206000CC680834B7E7CC680C34B4E703610824C3
:10207000B1E70024AFE70424ADE7061DAFE7ACF1FC
:1020800008029200B0E7032300E00023AB40334393
:102090000232444D45F822304B6813F4801F61D062
:1020A000424A936843EA0E0393604B6813F4001F9F
:1020B0005ED03E4AD36843EA0E03D3604B6813F404
:1020C000003F5BD0394A536843EA0E0353604B68C4
:1020D00013F4803F58D0354A136843EA0E03136067
:1020E0000CF1010C0A6832FA0CF353D0012303FA05
:1020F0000CF302EA030E33EA0202F1D14A68122A13
:102100003FF649AF122A3FF666AF01A555F822F017
:10211000BF1F000857200008612000087320000836
:10212000D71F0008D71F0008D71F0008D71F0008B7
:10213000D71F0008D71F0008D71F0008D71F0008A7
:10214000D71F0008D71F0008D71F0008D71F000897
:10215000D71F00085B20000867200008012395E7CF
:10216000022393E7114A936823EA0E0393609CE7E6
:102170000E4AD36823EA0E03D3609FE70B4A5368E5
:1021800023EA0E035360A2E7084A136823EA0E030A
:102190001360A5E702B070BD0000221000003110EE
:1021A000001002400000014000080140000401400E
:1021B0008368194201D001207047002070470AB19E
:1021C00001617047090401617047C36801EA0302B5
:1021D00021EA030141EA02410161704782B0084BE4
:1021E0001B68084AA2FB03235B0A00FB03F301936D
:1021F00000BF019B5A1E0192002BF9D102B070471B
:1022000000000020D34D6210002800F0F18170B56D
:1022100082B00446036813F0010F2CD0994B5B6821
:1022200003F00C03042B1DD0964B5B6803F00C03EA
:10223000082B12D06368B3F5803F41D0002B55D1F5
:1022400003F1804303F504331A6822F480321A60E4
:102250001A6822F480221A6037E08A4B5B6813F414
:10226000803FE7D0874B1B6813F4003F03D06368BF
:10227000002B00F0BF81236813F0020F75D0814B53
:102280005B6813F00C0F5FD07E4B5B6803F00C03B0
:10229000082B54D02369002B00F08A807A4B01224E
:1022A0001A60FFF755FC0546764B1B6813F0020FCA
:1022B00075D1FFF74DFC401B0228F5D903209EE1A4
:1022C000704A136843F480331360636843B3FFF7C5
:1022D0003FFC05466B4B1B6813F4003FCBD1FFF767
:1022E00037FC401B6428F5D9032088E1B3F5A02F03
:1022F00009D0644B1A6822F480321A601A6822F4FA
:1023000080221A60E1E703F18043A3F53C331A68A9
:1023100042F480221A601A6842F480321A60D4E7CC
:10232000FFF716FC0546574B1B6813F4003FA2D07D
:10233000FFF70EFC401B6428F5D903205FE1514BE9
:102340005B6813F4803FA5D14E4B1B6813F0020F5E
:1023500003D02369012B40F04F814A4A136823F0D0
:10236000F803616943EAC1031360236813F0080F9F
:1023700033D0A369002B5CD0434B0122C3F88024E7
:10238000FFF7E6FB05463F4B5B6A13F0020F21D1D6
:10239000FFF7DEFB401B0228F5D903202FE1394A65
:1023A000136823F0F803616943EAC1031360DCE7B3
:1023B000354B00221A60FFF7CBFB0546314B1B68FB
:1023C00013F0020FD1D0FFF7C3FB401B0228F5D951
:1023D000032014E10120FFF701FF236813F0040F2D
:1023E00000F09680274BDB6913F0805F34D1254BDA
:1023F000DA6942F08052DA61DB6903F080530193BD
:10240000019B0125214B1B6813F4807F26D0E368D4
:10241000012B3DD0002B53D103F1804303F504334E
:102420001A6A22F001021A621A6A22F004021A627F
:1024300033E0154B0022C3F88024FFF789FB0546E3
:10244000104B5B6A13F0020FC7D0FFF781FB401BF4
:102450000228F5D90320D2E00025D3E70B4A136800
:1024600043F480731360FFF773FB0646074B1B684A
:1024700013F4807FCBD1FFF76BFB801B6428F5D969
:102480000320BCE000100240000042420070004007
:102490005F4A136A43F001031362E36833B3FFF743
:1024A00057FB06465A4B1B6A13F0020F2FD1FFF75A
:1024B0004FFB801B41F288339842F3D903209EE002
:1024C000052B09D0524B1A6A22F001021A621A6ACD
:1024D00022F004021A62E0E74D4B1A6A42F004024D
:1024E0001A621A6A42F001021A62D6E7FFF730FB5D
:1024F0000646474B1B6A13F0020F08D0FFF728FB74
:10250000801B41F288339842F3D9032077E0E5B984
:10251000E369002B72D03E4A526802F00C02082A8E
:1025200056D0022B17D03B4B00221A66FFF710FB48
:102530000446374B1B6813F0007F47D0FFF708FBBA
:10254000001B0228F5D9032059E0314AD36923F052
:102550008053D361DCE72F4B00221A66FFF7F8FAAD
:1025600005462B4B1B6813F0007F06D0FFF7F0FAEF
:10257000401B0228F5D9032041E0236AB3F5803FD0
:102580001AD023494B6823F47413226A606A024309
:1025900013434B601F4B01221A66FFF7D9FA04461A
:1025A0001B4B1B6813F0007F0ED1FFF7D1FA001B05
:1025B0000228F5D9032022E0154A536823F400339A
:1025C000A1680B435360DCE7002018E0002016E010
:1025D000012B16D00E4B5B6803F48031226A9142C6
:1025E00011D103F47013626A93420ED1002006E009
:1025F00001207047012002E0012000E0002002B02D
:1026000070BD0120FBE70120F9E70120F7E700BFDB
:102610000010024000004242114B5A6802F00C03C5
:10262000042B18D0082B18D1C2F383430D49C85C82
:1026300012F4803F0BD00A4B5B68C3F340430A4A55
:10264000D35C0A4A02FB00F0B0FBF3F07047084B82
:1026500003FB00F07047054870470648704700BF0D
:10266000001002406C8300087C8300080024F40002
:1026700000093D0000127A00002800F0A08070B52B
:102680000D460446524B1B6803F007038B420BD2E6
:102690004F4A136823F007030B431360136803F0DA
:1026A00007038B4240F08D80236813F0020F17D090
:1026B00013F0040F04D0474A536843F4E0635360B7
:1026C000236813F0080F04D0424A536843F4605360
:1026D0005360404A536823F0F003A1680B435360F2
:1026E000236813F0010F31D06368012B20D0022B37
:1026F00025D0384A126812F0020F64D035494A6872
:1027000022F0030213434B60FFF722FA0646314BD7
:102710005B6803F00C036268B3EB820F16D0FFF71F
:1027200017FA801B41F288339842F0D9032045E024
:10273000284A126812F4003FE0D101203EE0254A09
:10274000126812F0007FD9D1012037E0204B1B68BE
:1027500003F00703AB420AD91D4A136823F00703AD
:102760002B431360136803F00703AB422DD123689A
:1027700013F0040F06D0174A536823F4E063E168AE
:102780000B435360236813F0080F07D0114A5368B6
:1027900023F46053216943EAC1035360FFF73CFF10
:1027A0000C4B5B68C3F303130B4AD35CD8400B4B51
:1027B00018600B4B1868FFF787F9002070BD0120E7
:1027C00070470120FAE70120F8E70120F6E700BF93
:1027D0000020024000100240548300080000002046
:1027E00008000020014B1868704700BF000000205F
:1027F00008B5FFF7F7FF044B5B68C3F30223034AF6
:10280000D35CD84008BD00BF0010024064830008BC
:1028100008B5FFF7E7FF044B5B68C3F3C223034A25
:10282000D35CD84008BD00BF00100240648300089C
:102830002DE9F04782B00546884617461E46FFF749
:1028400087F90A9B1B1A03EB0609FFF781F98246F9
:102850002B4B1B68C3F3CB3309FB03F301932B68AA
:102860009C6838EA04030CBF4FF0010C4FF0000CD9
:10287000BC4540D0B6F1FF3FF1D0FFF769F9A0EBBE
:102880000A0048450AD2B9F1000F07D0019A02B1F7
:102890004A46019B013B01939146E0E72A68536851
:1028A00023F0E00353606B68B3F5827F0BD0AB6A13
:1028B000B3F5005F14D0012385F85130002385F86B
:1028C0005030032018E0AB68B3F5004F02D0B3F5E9
:1028D000806FECD12A68136823F040031360E6E7A9
:1028E0002A68136823F4005313602A68136843F4BA
:1028F00000531360DFE7002002B0BDE8F08700BF9F
:102900000000002070B582B006460C4615460092C5
:102910000B4601220221FFF78BFF48B900952346A1
:10292000002280213046FFF783FF38B902B070BD26
:10293000736D43F0200373650320F7E7736D43F075
:10294000200373650320F1E7002856D010B5044634
:10295000436A33B94368B3F5827F05D00023C3616E
:1029600002E00023036143610023A36294F8513025
:10297000002B3CD0022384F851302268136823F0E6
:1029800040031360636803F48273A26802F4044294
:102990001343E26802F400621343226902F0020268
:1029A0001343626902F001021343A26902F4007248
:1029B0001343E26902F038021343226A02F08002F4
:1029C0001343A26A02F40052216813430B60638B25
:1029D000226803F0040353602268D36923F4006380
:1029E000D36100206065012384F8513010BD84F864
:1029F00050302046FEF744FEBCE7012070472DE929
:102A0000F04383B00446884691461F460A9DFFF76F
:102A10009FF8064694F85130DBB26268012B0AD069
:102A2000B2F5827F40F00581A268002A40F005815E
:102A3000042B40F00481B8F1000F00F00281B9F1DD
:102A4000000F00F00081002F00F0FF8094F850305C
:102A5000012B00F0FC80012384F8503094F85130B1
:102A6000DBB2042B02D0052384F8513000236365C8
:102A7000C4F83890E787A787C4F83080E786A78630
:102A80002364636423681A6812F0400F03D11A6844
:102A900042F040021A60E368B3F5006F11D063683A
:102AA0000BB1012F0BD1226B236812781A73236BA1
:102AB00001332363E38E9BB2013B9BB2E386012784
:102AC00071E063680BB1012F0BD1226B2368128870
:102AD000DA60236B02332363E38E9BB2013B9BB22C
:102AE000E38601271BE023689A6812F0010F0ED0DD
:102AF000E28F92B25AB1DA68A36B1A80A36B0233E9
:102B0000A363E38F9BB2013B9BB2E3870127FFF7EF
:102B10001FF8801BA84202D3B5F1FF3F1ED1E38E00
:102B20009BB21BB9E38F9BB2002B62D023689A68DB
:102B300012F0020FD7D0E28E92B2002AD3D0002F2B
:102B4000D1D0226B1288DA60236B02332363E38EC9
:102B50009BB2013B9BB2E3860027C4E7012384F8C4
:102B60005130002384F85030032063E023689A68D2
:102B700012F0010F0ED0E28F92B25AB1DA68A36B55
:102B80001A70A36B0133A363E38F9BB2013B9BB22B
:102B9000E3870127FEF7DCFF831BAB4202D3B5F1CD
:102BA000FF3F1ED1EDB1E38E9BB213B9E38F9BB211
:102BB000FBB123689A6812F0020FD7D0E28E92B26E
:102BC000002AD3D0002FD1D0226B12781A73236B36
:102BD00001332363E38E9BB2013B9BB2E386002764
:102BE000C4E7012384F85130002384F850300320D7
:102BF00020E0324629462046FFF784FE90B9A368BC
:102C000033B901932368DA6801929B680193019BB1
:102C1000012384F85130002384F85030636D4BB1A8
:102C2000012007E020236365002384F85030012051
:102C300000E0022003B0BDE8F0830220FAE70220A2
:102C4000F8E70120F6E70120F4E70120F2E702208F
:102C5000F0E710B4036A046A24F001040462846992
:102C600024F0F00C4CEA021223F00A030B438261B9
:102C7000036210BC704710B4036A046A24F01004A5
:102C80000462846924F4704C4CEA023223F0A003FD
:102C900043EA01138261036210BC7047836823F02A
:102CA00070030B4343F007038360704790F83D3097
:102CB000DBB2012B22D1022380F83D300368114A98
:102CC000934210D0B3F1804F0DD0A2F594329342CD
:102CD00009D002F58062934205D01A6842F00102E1
:102CE0001A60002070479A6802F00702062A07D08F
:102CF0001A6842F001021A600020704701207047F4
:102D000000207047002C01400368196A41F211123B
:102D1000114208D1196A40F24442114203D11A68A3
:102D200022F001021A60012380F83D300020704734
:102D300090F83D30DBB2012B27D1022380F83D30E3
:102D40000268D36843F00103D3600368114A9342D9
:102D500010D0B3F1804F0DD0A2F59432934209D038
:102D600002F58062934205D01A6842F001021A60AF
:102D7000002070479A6802F00702062A07D01A68F6
:102D800042F001021A6000207047012070470020C5
:102D9000704700BF002C0140704770477047704774
:102DA00070B504460368DE681D6915F0020F10D087
:102DB00016F0020F0DD06FF002021A6101230377A3
:102DC00003689B6913F0030F5ED0FFF7E6FF002353
:102DD000237715F0040F12D016F0040F0FD02368DC
:102DE0006FF004021A610223237723689B6913F4AE
:102DF000407F4FD02046FFF7D0FF0023237715F008
:102E0000080F12D016F0080F0FD023686FF00802D9
:102E10001A61042323772368DB6913F0030F40D082
:102E20002046FFF7BAFF0023237715F0100F12D0CA
:102E300016F0100F0FD023686FF010021A610823EC
:102E400023772368DB6913F4407F31D02046FFF7F6
:102E5000A4FF0023237715F0010F02D016F0010F15
:102E60002DD115F0800F02D016F0800F2FD115F064
:102E7000400F02D016F0400F31D115F0200F02D0D4
:102E800016F0200F33D170BDFFF786FF2046FFF705
:102E900085FF9CE72046FFF77FFF2046FFF77EFF78
:102EA000ABE72046FFF778FF2046FFF777FFBAE74A
:102EB0002046FFF771FF2046FFF770FFC9E7236840
:102EC0006FF001021A612046FEF722FAC9E7236873
:102ED0006FF080021A61204600F043F9C7E72368CB
:102EE0006FF040021A612046FFF759FFC5E72368DB
:102EF0006FF020021A61204600F032F9C3E70000AB
:102F000003681F4A90420AD0B0F1804F07D0A2F563
:102F10009432904203D002F58062904203D123F0B4
:102F200070034A681343164A90420AD0B0F1804FAA
:102F300007D0A2F59432904203D002F5806290420D
:102F400003D123F44073CA68134323F080034A6912
:102F5000134303608B68C3620B688362084B98421B
:102F60000AD001234361036913F0010F03D0036901
:102F700023F00103036170470B690363F1E700BFAE
:102F8000002C014040B310B5044690F83D30F3B139
:102F9000022384F83D30214651F8040BFFF7B0FFBF
:102FA000012384F8463084F83E3084F83F3084F8BA
:102FB000403084F8413084F8423084F8433084F85B
:102FC000443084F8453084F83D30002010BD80F84E
:102FD0003C30FEF7B9FCDBE70120704710B4846891
:102FE00024F47F4C42EA03220A4342EA0C02826044
:102FF00010BC704790F83C30012B78D010B50446D7
:10300000012380F83C30022380F83D300268936849
:1030100023F47F4323F0770393600B68602B4CD03D
:1030200029D8402B54D00CD9502B22D1CA684968DA
:103030000068FFF70EFE50212068FFF72FFE0020EA
:1030400005E0202B0DD009D9302B0AD00120012317
:1030500084F83D30002384F83C3010BD0BB1102BB8
:1030600005D119462068FFF719FE0020EFE701207F
:10307000EDE70120EBE7B3F5805F34D0B3F5005FF7
:103080000CD1CB684A6889680068FFF7A7FF2268FF
:10309000936843F4804393600020D8E7702B24D1D9
:1030A000CB684A6889680068FFF798FF22689368D0
:1030B00043F0770393600020C9E7CA684968006855
:1030C000FFF7D9FD60212068FFF7E8FD0020BEE78B
:1030D000CA6849680068FFF7BCFD40212068FFF717
:1030E000DDFD0020B3E70020B1E70120AFE70220BB
:1030F0007047000090F83C30012B2CD010B4012315
:1031000080F83C30022380F83D3003685A689C68A0
:1031100022F0700C0A6842EA0C025A6003680F4AF7
:1031200093420AD0B3F1804F07D0A2F59432934274
:1031300003D002F58062934204D124F080044A68EF
:1031400014439C60012380F83D30002380F83C301C
:10315000184610BC70470220704700BF002C014089
:1031600070477047026802F10C0353E8003F23F0F8
:10317000C0030C3242E800310029F3D1202380F84B
:1031800041307047026802F10C0353E8003F23F41A
:1031900090730C3242E800310029F3D1026802F149
:1031A000140353E8003F23F00103143242E80031D6
:1031B0000029F3D1036B012B05D0202380F8423086
:1031C000002303637047026802F10C0353E8003FD9
:1031D00023F010030C3242E800310029F3D1ECE770
:1031E00090F84130DBB2212B01D002207047836878
:1031F000B3F5805F17D0036A5A1C02621A7803681D
:103200005A60C38C9BB2013B9BB2C3844BB902682A
:10321000D36823F08003D3600268D36843F040038F
:10322000D360002070470369002BE4D1036A1B8838
:103230000268C3F308035360036A02330362E0E7E2
:1032400010B504460268136923F44053C1680B4368
:10325000136183680269134342691A430168CB68AA
:1032600023F4B05323F00C031343CB60026853697B
:1032700023F4407381690B4353610268134B9A42F4
:1032800020D0FFF7B5FA024602EB820202EB82027F
:1032900063689B00B2FBF3F20D48A0FB02314909C1
:1032A000642303FB11231B013233A0FB03235B09BF
:1032B00003F0F00202EB011203F00F032168134444
:1032C0008B6010BDFFF7A4FA0246DDE7003801402D
:1032D0001F85EB512DE9F04383B005460E46174696
:1032E0009946DDF828802C68246836EA04030CBF70
:1032F0004FF0010C4FF0000CBC4528D1B8F1FF3F56
:10330000F1D0FEF725FCA0EB0900404523D8B8F129
:10331000000F22D02B68DA6812F0040FE3D0802E61
:10332000E1D0402EDFD01A6812F0080FDBD0002465
:1033300001941A6801925B680193019B2846FFF78C
:1033400021FF08236B6485F84040012000E0002045
:1033500003B0BDE8F0830320FAE70320F8E760B389
:1033600010B5044690F8413013B3242384F841305B
:103370002268D36823F40053D3602046FFF760FF30
:103380002268136923F4904313612268536923F080
:103390002A0353612268D36843F40053D3600020AA
:1033A0006064202384F8413084F84230606310BDAB
:1033B00080F84030FEF72AFBD7E7012070472DE95F
:1033C000F04182B01E4690F84130DBB2202B56D13E
:1033D00004460D469046002955D00AB901204FE019
:1033E00000234364212380F84130FEF7B1FB0746F8
:1033F000A4F82480A4F82680A368B3F5805F02D0E7
:103400004FF0000814E023692BB34FF000080FE0E1
:10341000202384F84130032032E038F8023B226850
:10342000C3F308035360E28C92B2013A92B2E28491
:10343000E38C9BB293B100963B460022802120464C
:10344000FFF748FF0028E3D1002DE6D015F8012B47
:1034500023685A60E7E7A8460025E9E700963B465F
:10346000002240212046FFF735FF18B9202384F8B9
:10347000413005E0202384F84130032000E00220A1
:1034800002B0BDE8F0810120FAE72DE9F04182B0F9
:103490001E4690F84230DBB2202B59D104460D462F
:1034A0009046002958D00AB9012052E00023436415
:1034B000222280F842200363FEF74AFB0746A4F865
:1034C0002C80A4F82E80A368B3F5805F02D04FF063
:1034D00000081CE0236913B14FF0000817E0A8466C
:1034E000002514E0202384F84230032031E02368D3
:1034F0005B68C3F3080328F8023B03E023685B68BA
:103500002B700135E28D92B2013A92B2E285E38DE1
:103510009BB2C3B100963B46002220212046FFF714
:10352000D9FE0028DED1002DE1D0A368B3F5805F7D
:10353000E4D013B92369002BE0D023685B6803F063
:103540007F032B70DDE7202384F84230002000E069
:10355000022002B0BDE8F0810120FAE738B590F80A
:103560004130DBB2202B30D1044600292FD00AB9DC
:10357000012038BD01628284C2840023436421207B
:1035800084F84100A06B134D8562A06B124DC5629B
:10359000A06B124D0563A06B436320681346021DA8
:1035A000A06BFEF7A7FB23686FF040021A60226849
:1035B00002F1140353E8003F43F08003143242E861
:1035C00000310029F3D10020D3E70220D1E7012008
:1035D000CFE700BFE33500084B3600085936000836
:1035E000704708B50346406A1B681B6813F0200F3C
:1035F0001AD10023C384026802F1140353E8003F88
:1036000023F08003143242E800310029F3D102682C
:1036100002F10C0353E8003F43F040030C3242E850
:1036200000310029F3D108BDFFF7DAFFFBE708B549
:103630000168CA6822F04002CA60202280F8412056
:10364000FFF7CEFF002008BD704708B5406AFFF7BE
:10365000FBFF08BD7047704710B5446A23685A697C
:1036600094F84130DBB2212B10D023685A6902F064
:10367000400294F84230DBB2222B11D0636C43F04D
:10368000100363642046FFF7E6FF10BD02F08002DE
:10369000002AEAD00023E3842046FFF763FDE4E735
:1036A000002AEBD00023E3852046FFF76BFDE5E71A
:1036B00008B5406A0023C385C384FFF7CCFF08BD6B
:1036C000704790F84230DBB2222B69D18368B3F5A2
:1036D000805F4FD0826AB3F5805F04D0002B56D153
:1036E0000369002B53D103685B681370836A01334D
:1036F0008362C38D9BB2013B9BB2C385002B51D12A
:1037000000B583B00268D36823F02003D360026859
:10371000D36823F48073D3600268536923F00103F4
:103720005361202380F8423000234363036B012B55
:1037300033D100230363026802F10C0353E8003F16
:1037400023F010030C3242E800310029F3D1036862
:103750001A6812F0100F06D0002201921A68019226
:103760005B680193019B818DFFF7AAFF002003B0E6
:103770005DF804FB0269002AACD1826A03685B68C9
:10378000C3F308031380836A02338362B1E70368DB
:103790005B6803F07F031370A8E7FFF75BFFE5E7C3
:1037A000022070470020704730B583B0044602689D
:1037B0001368D068516913F00F0505D113F0200F7D
:1037C00002D010F0200F19D12DB111F0010119D143
:1037D00010F4907F16D1216B01297DD013F0800F5A
:1037E00003D010F0800F40F0188113F0400F03D089
:1037F00010F0400F40F0158103B030BD2046FFF7B8
:1038000060FFF9E713F0010F06D010F4807F03D0BA
:10381000626C42F00102626413F0040F04D019B12B
:10382000626C42F00202626413F0020F04D019B11C
:10383000626C42F00402626413F0080F07D010F0CB
:10384000200F00D119B1626C42F008026264626C10
:10385000002AD1D013F0200F02D010F0200F29D170
:1038600023685B6903F04003626C12F0080F00D11B
:1038700063B32046FFF786FC23685B6913F0400FB3
:1038800020D0226802F1140353E8003F23F04003E4
:10389000143242E800310029F3D1E36B73B1634A7B
:1038A0005A63E06BFEF784FA0028A5D0E06B436B07
:1038B0009847A1E72046FFF704FFD1E72046FFF72E
:1038C000CAFE99E72046FFF7C6FE95E72046FFF7B8
:1038D000C2FE002363648FE713F0100F3FF47EAF46
:1038E00010F0100F3FF47AAF002301931368019397
:1038F00053680193019B536913F0400F51D0E26B61
:1039000013685B689BB2002B3FF476AFA18D9942A0
:103910007FF672AFE3859369202B37D0226802F1DE
:103920000C0353E8003F23F480730C3242E800316B
:103930000029F3D1226802F1140353E8003F23F079
:103940000103143242E800310029F3D1226802F168
:10395000140353E8003F23F04003143242E80031DF
:103960000029F3D1202384F8423000232363226806
:1039700002F10C0353E8003F23F010030C3242E83D
:1039800000310029F3D1E06BFEF7EFF90223636306
:10399000A18DE38D9BB2C91A89B22046FFF790FE34
:1039A0002AE7A18DE38D9BB2C91A89B2E38D9BB240
:1039B000002B3FF421AF00293FF41EAF226802F133
:1039C0000C0353E8003F23F490730C3242E80030BC
:1039D0000028F3D1226802F1140353E8003F23F0DA
:1039E0000103143242E800300028F3D1202384F888
:1039F000423000232363226802F10C0353E8003FA6
:103A000023F010030C3242E800300028F3D10223E7
:103A100063632046FFF754FEEEE62046FFF7E0FB27
:103A2000EAE62046FFF703FEE6E600BFB1360008EF
:103A3000FDF7E2FE0B480C490C4A002302E0D45883
:103A4000C4500433C4188C42F9D3094A094C0023EA
:103A500001E013600432A242FBD300F015F8FDF739
:103A600095FD704700000020E001002094880008C8
:103A7000E001002014040020FEE70000014B18685C
:103A8000704700BF0C00002070B500260C4D0D4C97
:103A9000641BA410A64209D104F04EFC00260A4D76
:103AA0000A4C641BA410A64205D170BD55F8043B16
:103AB00098470136EEE755F8043B98470136F2E7A0
:103AC0008C8800088C8800088C8800089088000882
:103AD00003460244934200D1704703F8011BF9E703
:103AE000002B2DE9F0471F46BBBF03F100431F46E3
:103AF00000232D2388B01446129A109D1370149B36
:103B0000DDF84CA023F02008B8F1460F05D0B8F13D
:103B1000450F00D10135022300E0032307AA0492D8
:103B200006AACDE902A2CDE9003522463B4601F0C6
:103B300083FDB8F1470F064602D1119BDB0722D562
:103B4000B8F1460F06EB050910D13378302B0AD1B6
:103B50000022002320463946FCF726FF18B9C5F19C
:103B60000105CAF80050DAF8003099440022002319
:103B700020463946FCF718FF08B1CDF81C903022DA
:103B8000079B4B4507D33046079B159A9B1B136039
:103B900008B0BDE8F087591C07911A70F0E703469A
:103BA000F7B5002903F8022BB6BF2D222B2249427C
:103BB000092942702BDD0DF10704A4460A2791FB69
:103BC000F7F60A46A64607FB1615632A05F13005E7
:103BD000314604F1FF340EF8015CF0DC3031AEF117
:103BE000020504F8011C2946441C61450AD30DF165
:103BF0000902A2EB0E02654588BF00221344181A81
:103C000003B0F0BD11F8012B04F8012FEDE73023CC
:103C100030318370C170031DF1E700002DE9F04FD2
:103C200091B00C46DDF8688016461F46054603F045
:103C30000BF8036818460993FCF78AFA00230E93E1
:103C4000D8F800300A90073323F0070303F1080285
:103C500094F81890D4F800B0C8F80020D3E90023F5
:103C6000C4E91223D4E9128A2AF000430B934FF0DF
:103C7000FF3240469C4B0B99FCF7C8FE70BB4FF0DF
:103C8000FF324046984B0B99FCF7A2FE30BB002256
:103C9000002340465146FCF791FE10B12D2384F8D5
:103CA0004330924B9248B9F1470F94BF98468046F3
:103CB00003234FF0000A23612BF0040323603346F3
:103CC0002146284600970FAA00F0D4F9013040F0B1
:103CD00090804FF0FF3011B0BDE8F08F4246534660
:103CE00040465146FCF792FE48B1BAF1000FB8BF0A
:103CF0002D238048B8BF84F843307F4BD3E76368F7
:103D000009F0DF015A1C42D10623636000220692AB
:103D10000EAACDE904920DAA4BF4806303920DF133
:103D20003302CDE90132236063684246009328469E
:103D300053460B91FFF7D4FE0B99804647290D9906
:103D400008D1C81C02DB6368994240DDA9F1020971
:103D50005FFA89F9B9F1650F1FD84A46013904F1B4
:103D600050000D91FFF71BFF0E9A82461318012A8F
:103D7000236102DC2268D20701D5013323619DF85B
:103D80003330002B9BD02D2384F8433097E747290D
:103D9000BCD1002BBAD10123B7E7B9F1660F18D116
:103DA000002963680BDD216113B92268D00702D5B1
:103DB00001330B4423614FF0000AA165DFE713B91B
:103DC0002268D20701D50233F4E70123F2E74FF06E
:103DD00067090E9B994205DB23682161D807EAD564
:103DE0004B1CE7E70029CCBF0122C1F102021344BA
:103DF000E0E723685A0507D423694246314628463E
:103E0000B84701302BD164E7B9F1650F40F2DD808E
:103E1000D4E9120100220023FCF7C6FD002833D0AC
:103E2000012331462846354AB84701303FF451AFA7
:103E3000DDE90D239A4202DB2368D8070FD5DDE9BF
:103E4000092331462846B84701303FF442AF4FF0CE
:103E5000000804F11A090E9B013B434509DC236865
:103E60009B0700F10281E0680F9B9842B8BF18469B
:103E700031E701234A4631462846B84701303FF42E
:103E800028AF08F10108E6E70D9B002B38DC012381
:103E900031462846194AB84701303FF41AAFDDE9E8
:103EA0000D23134302D12368D907D8D5DDE90923AF
:103EB00031462846B84701303FF40BAF4FF00009B8
:103EC00004F11A0A0D9B5B424B4501DC0E9B94E703
:103ED0000123524631462846B84701303FF4F9AE37
:103EE00009F10109EEE700BFFFFFEF7F84830008BF
:103EF00088830008908300088C830008948300085E
:103F00000E9AA36D9A42A8BF1A46002A914637DC42
:103F10004FF0000B29EAE97904F11A02D4F858A00D
:103F2000AAEB09035B4533DCDDE90D239A423BDB59
:103F30002368DA0738D40E9B0D99A3EB0A02A3EB92
:103F400001099145A8BF9146B9F1000F34DC4FF04B
:103F5000000829EAE97904F11A0ADDE90D239B1A20
:103F6000A3EB090343457FF77AAF0123524631465D
:103F70002846B84701303FF4ACAE08F10108ECE741
:103F80001346314642462846B8470130C0D1A0E624
:103F90000123314628460B92B84701303FF499AED1
:103FA0000B9A0BF1010BB9E73146DDE909232846ED
:103FB000B8470130BFD18CE64B463146284608EB66
:103FC0000A02B8470130C2D183E60E9A012A01DC09
:103FD000DB0737D50123424631462846B847013032
:103FE0003FF477AEDDE9092331462846B847013072
:103FF0003FF46FAED4E9120100220023FCF7D4FC99
:10400000D8B90E9B08F10102013B31462846B8475A
:1040100001300ED15DE601234A4631462846B847B5
:1040200001303FF456AE08F101080E9B013B4345B9
:10403000F1DC534604F15002E0E64FF0000804F1D1
:104040001A09F2E701234246DFE701234A463146D7
:104050002846B84701303FF43CAE08F10108E36858
:104060000F995B1A4345F0DCFDE64FF0000804F1C0
:104070001909F4E72DE9F047164699468A680B6955
:1040800007469342B8BF1346336091F843200C466D
:10409000DDF820800AB1013333602368990642BFFE
:1040A000336802333360256815F0060506D104F144
:1040B000190AE36832689B1AAB4228DC94F8432063
:1040C000131E226818BF012392062DD44946384694
:1040D00004F14302C047013020D02368E56803F0B3
:1040E0000603042B18BF002532684FF00006A368B2
:1040F00008BFAD1A226908BF25EAE5759342C4BF1F
:104100009B1AED181A34B5421AD1002008E0012399
:10411000524649463846C047013003D14FF0FF3080
:10412000BDE8F0870135C4E73020E11881F843008D
:104130005A1C94F845102244023382F84310C5E714
:104140000123224649463846C0470130E6D00136B1
:10415000D9E700002DE9FF470F7E9146782F804672
:104160000C469A460C9D01F1430207D8622F0AD8EB
:10417000002F00F0D980582F00F0A48004F14205F0
:1041800084F842703AE0A7F16303152BF6D801A139
:1041900051F823F0ED410008014200087D4100087C
:1041A0007D4100087D4100087D4100080142000872
:1041B0007D4100087D4100087D4100087D410008E7
:1041C0000F43000831420008F14200087D41000819
:1041D0007D410008314300087D410008314200085C
:1041E0007D4100087D410008F94200082B681A1D36
:1041F0001B682A6004F1420584F842300123A4E0E0
:1042000020682968060601F104030AD50E682B60B0
:10421000002E03DA2D23764284F843300A235E48C9
:1042200019E00E6810F0400F2B6018BF36B2EFE7B0
:104230002B682068191D2960010601D51E6802E05F
:104240004606FBD51E886F2F0CBF08230A23524851
:10425000002184F843106568002DA8BF2168A5607F
:10426000A4BF21F0040121600EB9002D4DD01546E8
:10427000B6FBF3F103FB1167C75D05F8017D374617
:10428000BB420E46F4D9082B0BD12368DE0708D5B4
:10429000236961689942DEBF302305F8013C05F1CE
:1042A000FF35521B22614B4621464046CDF800A007
:1042B00003AAFFF7DFFE01304CD14FF0FF3004B00E
:1042C000BDE8F087344881F845702968236851F8C3
:1042D000046B29601D0614D5DF0744BF43F020039B
:1042E00023601EB9236823F0200323601023AFE767
:1042F000236843F0200323607823284884F845305E
:10430000E3E7590648BFB6B2E6E71546BBE72B68B8
:104310002668181D6169286035061B6801D519607B
:1043200002E07006FBD51980002315462361BAE729
:104330002B6800211A1D2A601D686268284602F059
:1043400009FD08B1401B606063682361002384F8A5
:104350004330A8E72A46494640462369D047013002
:10436000ABD023689B0713D4E068039B9842B8BF87
:104370001846A4E70123324649464046D04701305B
:104380009BD00135E36803995B1AAB42F2DCEBE7A3
:10439000002504F11906F5E796830008A7830008B5
:1043A0002DE9F04F87B003938B6817465A1EB2F57C
:1043B000AE7F85BF6FF4AE755B190023029388BF93
:1043C00040F25D138B464FF000058CBF8B6002936B
:1043D0000B68804643F4F0634BF81C3B0C465E468A
:1043E000AA46A946CDE904550195A26852B13B6899
:1043F0001B784E2B64D8402B3CD8A3F12B01C8B2BC
:104400000E283AD9B9F1000F03D0236823F4807342
:1044100023600AF1FF3ABAF1010F00F213815E4501
:1044200000F205810125284607B0BDE8F08FA3F111
:1044300061020D2AE6D801A151F822F07B4500085F
:10444000054400080544000805440008DB45000851
:10445000B3450008054400080544000889450008E4
:104460000544000805440008054400080544000808
:1044700041450008A3F14102DBE70E29C2D801A0A3
:1044800050F821F033450008054400083345000882
:10449000C745000805440008E14400081D45000820
:1044A0001D4500081D4500081D4500081D45000864
:1044B0001D4500081D4500081D4500081D45000854
:1044C0006E2B09D8602BB2D8542B77D0592B99D1A9
:1044D000072D97D1082529E0742B6FD0792BF6E7AB
:1044E0002168C8051AD5029B21F08001216009F1DD
:1044F00001091BB1013B01320293A260A368013B99
:10450000A3602369013323617B68013B002B7B603F
:1045100040F384803B6801333B6066E71AEB050F8C
:104520007FF470AF226822F4C072226006F8013B6B
:10453000E4E7226810067FF565AF22F08002F4E719
:10454000BAF1000F0ED1B9F1000F0ED1226802F4BA
:10455000E061B1F5E06F08D122F4F0624FF0010A9A
:104560002260E3E7BAF1020F55D0012D02D0042DED
:104570007FF448AF0135EDB2D8E7BAF1010F7FF40F
:1045800041AF4FF0020AD1E77DB9B9F1000F7FF4D6
:104590003CAF226802F4E061B1F5E06F7FF439AF1F
:1045A00022F4F06201252260C0E7032DE2D0052D40
:1045B000DEE7022D7FF426AF0325B7E7062D7FF453
:1045C00021AF0725B2E7226891057FF51BAF22F4E2
:1045D00020722260CDF80490A8E7226802F4A0615E
:1045E000B1F5806F06D050057FF50CAFB9F1000F23
:1045F0003FF40FAF910558BF019922F4F06258BF04
:10460000A9EB010142F4C0724FF0000958BFCDE997
:10461000041622608AE74FF0030A87E739464046CE
:10462000D4F88031984700283FF4DFAEEAE6D4F8AA
:104630007C313A46404616F8011D98472369013BF4
:104640002361ECE66B1E062B25D8022D36D85E457D
:104650007FF6E8AED4F87C313A46404616F8011DA4
:1046600098472369013B2361F1E70298D4F87C3134
:1046700010F8011D3A460290404698472369013BD5
:1046800023610AF1FF3A5FFA8AFABAF1020FECD11C
:10469000033DEDB2761B2368DA052FD55B0510D5F7
:1046A0005E457FF6BFAED4F87C313A46404616F8F8
:1046B000011D98472369013B2361F1E7AA46029651
:1046C000DFE716F8011C2369652903F1FF3306F1C2
:1046D000FF3523610CD045290AD0D4F87C313A4605
:1046E00040469847236916F8021C013BB51E23611A
:1046F0003A464046D4F87C3198472E46256815F056
:10470000100555D13570236803F4C063B3F5806F8D
:104710001BD1019B4B45A3EB090223D10022594633
:10472000404600F079FE2268039B12F0020F064615
:104730000F461B6821D01A1D03990A601B68C3E944
:104740000067E3680133E3606DE6049B002BE5D06E
:1047500005990A232A464046013100F0DFFE049BFA
:10476000059EC21A04F26F139E4228BF04F5B77665
:104770003046104900F026F8D0E712F0040F03F19C
:104780000402D9D1DDF80CC0CCF80020D3F80080A9
:1047900002460B46FCF73AF928B1074800F00EF83C
:1047A000C8F80000CDE730463946FCF78DF9F7E749
:1047B000002538E6B883000888880008004870475C
:1047C0000000C07F0EB46FF0004100B59CB01DAB7F
:1047D00002900690079104910848094953F8042B68
:1047E0000591006802A9019303F0D4F80022029B0E
:1047F0001A701CB05DF804EB03B070470C00002089
:104800000802FFFF2DE9F0410F46904602F02EFE10
:1048100004460D46B8F1000F11D0C7F30A53C3F197
:104820006B03002B0BDD00241B0503F17F5505F501
:10483000401522462B46FBF74FFE04460D46204608
:104840002946BDE8F08100002DE9F04F9B4600238A
:104850009FB01A939E4B82461F680E4638461592AB
:10486000FBF776FC4FF0000804464FF0000919965C
:10487000199B1A782B2A4CD03AD80D2A33D8082AFB
:1048800033D8002A3DD000230A93199D2B78302B72
:1048900040F0AA806B7803F0DF03582B66D10A9BA7
:1048A000504601931AAB00938A4ACDF808B01BAB6F
:1048B00019A901F0CBFE10F00706044605D0062E1C
:1048C00029D10023013519950A93159B002B40F03F
:1048D0008A850A9BD3B1424609F100431046194626
:1048E0001FB0BDE8F08F202ACDD101331993BFE767
:1048F0002D2AC8D101220A925A1C19925B78002BEA
:10490000C3D1159B1996002B40F06B8542464B4650
:10491000E4E70022EFE71A9A3AB135211CA802F029
:10492000A9FE50461A9902F071FA013E042E06D8EB
:10493000DFE806F00A0314170A00DDE91C892107E5
:10494000C3D549F00049C0E71B9ADDE91C8302F298
:10495000334223F4801343EA0259F0E7DFF87891F9
:10496000EDE76FF000494FF0FF38E8E7199B5A1C5C
:1049700019925B78302BF9D0002BA6D00123079336
:10498000199B0A22089300239B46CDE90533199809
:104990000578A5F13003D9B2092927D9224639462D
:1049A00003F051F9002833D000202A465C46034624
:1049B0000490652A01D0452A14D11CB9079A0243F4
:1049C0009FD00024199E721C199272782B2A79D0DC
:1049D0002D2A00F083800027A2F13001092940F23E
:1049E0008380199600259FE00023C8E7BBF1080FDC
:1049F000D5BF0699059902FB013302FB013300F193
:104A00000100D4BF069305930BF1010B1990BEE78B
:104A1000199B1A1919921A5DBBF1000F36D05C462A
:104A20000490A2F13003092B12D90123C1E7199B8D
:104A300001305A1C19925A78302AF8D0A2F1310369
:104A4000082B00F2D584049000200446199B08939B
:104A5000303A00F1010313D0049905191944049167
:104A600023460A21AB4213D12318082B04F1010479
:104A700004441BDC0A23069903FB0123069300234D
:104A8000199A1846511C19915278CAE75846D3E72B
:104A9000082B04DC069F4F4306970133E2E75F1CB7
:104AA000102FDEBF059F4F430597F6E7102CDFBFA1
:104AB0000A23059903FB01230593E0E700230493F0
:104AC00001237BE70027B21C1992B27884E700BF6C
:104AD000AC860008C08300080000F07F0127F2E7E1
:104AE000199A511C19915278302AF9D0A2F131014A
:104AF00008293FF677AF4FF00A0EA2F1300C199A51
:104B00000992199A511C19915278A2F13005092D78
:104B100035D9099D491B082944F61F6502DC654506
:104B2000A8BF654607B16D42002C4CD107990143DF
:104B30007FF4CBAE002B7FF4E4AE692A26D023DCD1
:104B4000492A23D04E2A7FF4DCAE9D4919A801F0F2
:104B5000CBFF00283FF4D5AE199B1B78282B2CD116
:104B600098491CAA19A801F0D3FF052825D11D9B3F
:104B7000DDF8708043F0FF4949F4E009A5E60EFB3B
:104B80000C2CACF1300CBCE76E2ADCE78E4919A87E
:104B900001F0AAFF00283FF4B4AE199B8B49013BFA
:104BA00019A8199301F0A0FF10B9199B01331993AB
:104BB0004FF00008DFF8189287E6864802F0EAFF17
:104BC0008046894681E6049BBBF1000F08BFA346DF
:104BD000EB1A102C069826460793A8BF1026FBF761
:104BE00001FC092C8046894613DD7B4B03EBC60391
:104BF00053E91223FBF770FC804605988946FBF7C2
:104C0000F1FB02460B4640464946FBF7AFFA8046A9
:104C100089460F2C36DC079B002B3FF456AE22DD75
:104C2000162B09DC6C49424601EBC3014B46D1E926
:104C30000001FBF751FCC3E7079AC4F12503934237
:104C400020DB654DC4F10F0405EBC4014246D1E9F8
:104C500000014B46FBF740FC079B1C1B05EBC40502
:104C6000D5E90023E5E7079B16330BDB049B4046A1
:104C70005D1B594B494603EBC505D5E90023FBF7FE
:104C800055FD9DE7079BA61B1E44002E74DD16F004
:104C90000F030AD05049424601EBC301D1E900019C
:104CA0004B46FBF719FC8046894636F00F0652D07A
:104CB000B6F59A7F27DD4FF0000BCDF810B0CDF898
:104CC00020B0CDF818B022234FF00008DFF8009193
:104CD000CAF80030089B002B3FF4F7AD50461A99F4
:104CE00002F094F85046069902F090F85046049964
:104CF00002F08CF85046089902F088F85946504660
:104D000002F084F8E1E5354B40460593002349461F
:104D10001F463611012E21DC0BB1804689462F4BF0
:104D2000A9F1547903EBC7074246D7E900014B4686
:104D3000FBF7D2FB264B0A460B40294980468B42A3
:104D4000B9D8A1F580118B4286BF4FF0FF38DFF84C
:104D5000949002F15479002305937FE0F20705D582
:104D6000059BD3E90023FBF7B7FB0123059A013725
:104D7000083276100592CDE7EDD0764216F00F029C
:104D80000AD0154B404603EBC2034946D3E9002342
:104D9000FBF7CCFC804689463611DCD01F2E23DD84
:104DA0004FF0000BCDF810B0CDF820B0CDF818B012
:104DB00022234FF000084FF00009CAF8003089E7BD
:104DC00091830008D48300088983000814850008B3
:104DD0000000F07F88880008688700084087000886
:104DE0000000A07CFFFFEF7F16F0100318BF6A23BE
:104DF0004046059349460023B04FF20704D5D7E952
:104E00000023FBF769FB0123761007F10807F4D1B3
:104E10000BB180468946059BC3B1C9F30A52C2F162
:104E20006B03002B494611DD1F2B40F32781342BE8
:104E3000D8BF4FF0FF334FF00008CFBF4FF05C7981
:104E4000C2F14B0203FA02F202EA01090022002336
:104E500040464946FBF7A8FD0028A1D1069B5A46CB
:104E6000009350462346089902F038F8089000282D
:104E70003FF421AF049B4FF0000B5D1B079BCDF867
:104E800010B0002BB4BF2B4600230E93079B23EAE0
:104E9000E3731493089B5046596801F077FF06901E
:104EA00000283FF410AF089B0C301A6903F10C0185
:104EB0000232920001F05CFF1CAB01931BAB00932C
:104EC00042464B465046CDE90C8902F049FB1A9008
:104ED00000283FF4F8AE0121504602F097F803464F
:104EE000049000283FF4EFAE1B9D1C9A002DABBF31
:104EF0000E9B149BEE185C1B059BA8BF149CA5EB96
:104F0000030515446E4B05F1FF35B8BF0E9E9D425B
:104F1000C2F1360280F2C4805B1B1F2B4FF00107E9
:104F2000A2EB030200F3B180002507FA03F30F930D
:104F3000B718059BBE4214441C443346A8BF3B46E9
:104F4000A342A8BF2346002BC2BFFF1AE41AF61AD9
:104F50000E9B002B17DD1A465046049902F014F9F7
:104F6000049000283FF4AFAE01461A9A504602F072
:104F700063F8099000283FF4A6AE50461A9901F054
:104F800045FF099B1A93002F00F38E80079B002B8F
:104F900008DD5046149A069902F0F6F806900028AB
:104FA0003FF491AE002C08DD22465046069902F0EF
:104FB00045F9069000283FF486AE002E08DD324603
:104FC0005046049902F03AF9049000283FF47BAE71
:104FD0005046069A1A9902F0BDF9834600283FF41C
:104FE00072AE0024C3680499C4600B9302F096F972
:104FF000A0426BDA0B9B53EA080340F09180C9F39F
:105000001303002B40F08C8029F000431B0D1B057F
:10501000B3F1D66F40F28480DBF814301BB9DBF8B3
:105020001030012B7CDD59460122504602F006F972
:105030000499834602F072F9002871DD05994B4608
:10504000204A002900F08C8002EA0901B1F1D66FF4
:1050500000F38680B1F15C7F7FF7AAAE40464946F7
:10506000194B0022FBF738FA0B46034308BF2223F3
:105070008046894608BFCAF800302FE64FF0FF325D
:1050800002FA03F303EA0808E0E6C5F17F4505F5F7
:105090007F0505F57B45E23507FA05F50F9747E7EC
:1050A000012300250F9343E73A4650461A9902F030
:1050B000C5F81A9000287FF469AF04E6E883000879
:1050C00002FCFFFF0000F07F00005039CDF8249073
:1050D00065D10B9AC9F313035AB3994A93422BD162
:1050E000059B414603B34A46964B1340B3F1D46F38
:1050F0004FF0FF321BD81B0DC3F16B0302FA03F311
:10510000994219D1904B099A9A4202D101313FF448
:10511000DAAD4FF000088B4B099A1A4002F580195E
:10512000059B002B9AD1D9E54FF0FF33E8E71346F2
:10513000E6E753EA080381D0E5B1099B1D42EFD0B1
:105140000B9B40464946059AC3B1FFF75BFB0246FD
:105150000B46DDE90C01FBF709F880468946DFE7DD
:105160001340A3F580136FEA13594FF0FF386FEA2D
:105170000959D5E70F9B13EA080FE0E7FFF742FB59
:1051800002460B46DDE90C01FAF7EEFF0022002390
:1051900080468946FBF708FC0028C1D008E658463F
:1051A000049902F039FA00224FF0804306460F4678
:1051B000FBF70EFC002870D00B9B002B42D0002682
:1051C000624F624D099B23F000431B0D1B050F939B
:1051D0000F9A5F4B9A4240F0C380099B4046A3F16F
:1051E0005479494602F042F902460B4630463946A8
:1051F000FBF772F942464B46FAF7B8FF0B465149A6
:10520000544A1940914280465DD90D9A4E4B9A42BC
:1052100003D10C9B01333FF456AD4FF0FF38DFF85C
:10522000289150461A9901F0F1FD5046069901F077
:10523000EDFD5046049901F0E9FD5946504601F054
:10524000E5FD27E6B8F1000F19D1099BC3F313035D
:10525000E3B90022304639463C4BFBF7AFFBC8B9F7
:105260000022304639463C4BFBF736F904460D46E2
:1052700005F1004316941793DDE91667A2E7B8F12C
:10528000010F03D1099B002B3FF492AD00260024AF
:10529000324F96E70B9C304DEAE72F4B0022304609
:1052A0003946FBF719F90B9B04460D4633B901F15A
:1052B000004310901193DDE9106783E702460B4627
:1052C000CDE91023F7E703F15479059B002BA8D112
:1052D00029F000430F9A1B0D1B059A42A1D12046CD
:1052E0002946FBF741FCFBF7C9F802460B4620466E
:1052F0002946FAF739FF0B9AC9F3130343EA080367
:10530000134304460D4666D009A3D3E90023FBF7F7
:1053100055FB00287FF4E2AC07A3D3E90023204625
:105320002946FBF769FB00283FF47BAFD6E400BFBA
:105330009535A094FFFFDF3F35E5AF350000E03F36
:10534000FFFF0F000000F07FFFFFEF7F0000F03F46
:105350000000E07FFFFF9F7C0000E03F0000F0BF07
:10536000059B13B30F9BB3F1D46F1ED826A3D3E9CB
:10537000002320462946FBF72BFB90B12946204607
:10538000FBF782FB012838BF0120FBF72BF80B9BB2
:1053900004460D46D3B901F1004312901393DDE9A1
:1053A00012670F9A07F1D6639F1ADDE90C0102F02C
:1053B0005DF802460B4630463946FBF78DF8DDE9CD
:1053C0000C23FAF7D3FE804689467EE702460B4659
:1053D000CDE91223E3E70EA3D3E90023FBF7EEFAAE
:1053E000A1E700230A93199B159A1360FFF771BA7E
:1053F000652A3FF463AB452A3FF460AB0123FFF716
:1054000095BB00BFAFF300800000C0FFFFFFDF418E
:105410009535A094FFFFCF3F014BFFF715BA00BFB2
:1054200074000020012B2DE9F047804601D0242B89
:1054300006D9FEF723FB162303600020BDE8F087A2
:105440000D46354F284615F8014BE65D16F0080667
:10545000F8D12D2C2FD101262C78851C002B57D06C
:10546000102B09D1302C07D1287800F0DF00582804
:1054700049D110236C780235002706F1004E0EF159
:10548000FF3EBEFBF3F9384603FB19EAA4F1300CEA
:10549000BCF1090F14D86446A34222DD002F1DDBA6
:1054A00081451BD301D1A24518DB012700FB034036
:1054B00015F8014BEAE72B2C04BF2C78851CCDE7AF
:1054C000A4F1410CBCF1190F01D8373CE4E7A4F179
:1054D000610CBCF1190F04D8573CDDE74FF0FF37E2
:1054E000E6E7002F07DA22237046C8F80030002ACA
:1054F000A4D0691E05E006B14042002A9ED0002FCC
:10550000F7D111609AE73024002BB5D10823B3E717
:10551000302CA9D00A23AFE711840008FFF782BF1F
:105520002DE9F74F03690C690746A342C0F2828058
:10553000013C00F1140501F1140805EB840301930B
:1055400058F8243055F8242001339A42B2FBF3F680
:105550004FEA840B08EB840931D34FF0000E40462C
:10556000AC46F24650F8042B93B206FB03E3120C50
:105570004FEA134E9BB206FB02E2AAEB0303DCF8F0
:1055800000A04FEA124E1FFA8AFA5344DCF800A03A
:1055900092B2C2EB1A4202EB23429BB243EA0243AD
:1055A00081454FEA224A4CF8043BDBD255F80B30D8
:1055B0002BB9019B043B9D421A462FD33C613846D0
:1055C00001F0ACFE002825DB28464FF0000C013628
:1055D00058F8041BD0F800E08BB2ACEB03031FFAC1
:1055E0008EF213440A0CC2EB1E4202EB23429BB222
:1055F00043EA0243C1454FEA224C40F8043BE7D25C
:1056000055F8242005EB840322B9043B9D421A4639
:105610000AD33C61304603B0BDE8F08F1268043B0A
:10562000002ACBD1013CC6E71268043B002AF0D126
:10563000013CEBE70020EEE72DE9F04F16461F4650
:10564000446A99B00546CDE90467DDF8948074B9E1
:10565000102001F065FB0246686220B9EA21A84BE0
:10566000A84802F023FBC0E901440460C4606B6AEF
:10567000196851B15A68012393404A608B602846EB
:1056800001F0C4FB00226B6A1A603B1EAFBF00230F
:10569000012223F000430593A8BFC8F80030DDF8CD
:1056A0001490994BB8BFC8F8002033EA090319D108
:1056B00042F20F73249A1360C9F31303334300F0CB
:1056C0007F85269B53B9914B22E0914B039308337E
:1056D000269A1360039819B0BDE8F08F8B4B0393A3
:1056E0000333F5E7DDE90434CDE90C34DDE90C01E1
:1056F00000220023FBF758F9804658B10123249A71
:105700001360269B002B00F0588582481860431ECA
:105710000393DFE716AB019317AB00932846DDE94F
:105720000C2301F01DFFC9F30A548346002C7FD0DF
:10573000DDE90C010D9BA4F2FF34C3F3130343F026
:105740007F5141F44011CDF84C800022724BFAF7A2
:105750000BFD65A3D3E90023FAF7BEFE64A3D3E9EA
:105760000023FAF703FD064620460F46FAF74AFEE5
:1057700061A3D3E90023FAF7AFFE02460B46304699
:105780003946FAF7F3FC06460F46FBF755F90022B7
:105790008246002330463946FBF710F948B150469F
:1057A000FAF730FE32463B46FBF7FEF808B90AF13D
:1057B000FF3ABAF1160F58D8DDE90C01574B03EB4D
:1057C000CA03D3E90023FBF7F9F800284FD00023E0
:1057D0000AF1FF3A0F93169B1C1B631E099349BFE6
:1057E000C4F1010300230693002354BF06930993D9
:1057F000BAF1000F3DDB099BCDF838A05344099363
:1058000000230A93229B092B00F28C80052BC4BF36
:10581000043B2293229BC8BF0024A3F10203D8BFFC
:105820000124032B00F28A80DFE803F02D4F4D5B4B
:10583000DDE916431C4404F23243202BC3BFC3F1FD
:10584000400304F2124009FA03F3C3F12003C6BF78
:1058500026FA00F0184306FA03F0FAF7C3FD012315
:10586000A1F1F871013C13936FE70123B2E70F90A8
:10587000B1E7069BA3EB0A030693CAF100030A9360
:1058800000230E93BEE700230B93239B002B58DCD1
:105890004FF001094B46CDF82090CDF88C900022B6
:1058A000686A4260042202F114069E4241684ED9A1
:1058B000284601F06BFA039000284CD102464FF4C1
:1058C000D571174BCCE60123DEE700230B93239B16
:1058D0000AEB030909F10103012B0893B8BF012367
:1058E000DDE70123F2E700BF61436F63A787D23F83
:1058F000B3C8608B288AC63FFB799F501344D33FBF
:105900001E850008358500080000F07F1A85000814
:1059100011850008958300080000F83F688700089B
:10592000B3850008012400230B9422934FF0FF3924
:1059300000221223CDF820902392B0E701230B938D
:10594000F4E7DDF88C904B46CDF82090A7E70131C5
:1059500041605200A7E76B6A039A1A60089B0E2BFE
:1059600000F2A880002C00F0A580BAF1000F34DD11
:105970009A4A0AF00F0302EBC3031AF4807FD3E9BB
:105980000034CDE910344FEA2A1416D0DDE90C01B9
:10599000934B0327D3E90823FAF7C8FECDE90401A6
:1059A00004F00F048E4E54B9DDE91023DDE9040143
:1059B000FAF7BCFECDE9040129E00227F2E7E1078E
:1059C00008D5DDE91001D6E90023FAF785FDCDE918
:1059D0001001013764100836E5E700F0A580DDE925
:1059E0000C01CAF100047D4B04F00F0203EBC2036B
:1059F000D3E90023FAF770FD02270023CDE9040163
:105A0000774E2411002C40F08480002BD2D10F9BC4
:105A1000002B00F08B80DDE90434CDE91034DDE9A2
:105A2000100100226F4BFAF7C9FF00287ED0089BB7
:105A3000002B7BD0B9F1000F38DDDDE91001002229
:105A4000694BFAF749FD4C46CDE904010AF1FF38EC
:105A500001373846FAF7D6FCDDE90423FAF73CFDB6
:105A60000022624BFAF782FBA1F15076CDE91001DA
:105A70001196002C5DD1DDE9040100225C4BFAF7A0
:105A800073FB02460B46CDE904233346109AFAF71E
:105A9000B3FF002840F09C82DDE90401109A06F172
:105AA0000043FAF78BFF002840F09082DDE90C34C8
:105AB000CDE90434179B002BC0F25281BAF10E0FCE
:105AC00000F34E81454B03EBCA03D3E90034CDE923
:105AD0000634239B002B80F2DB80089B002B00F315
